:020000040800F2
:10000000300F0020490100083F210008D71F0008D9
:100010003D21000801040008FB3C0008000000002E
:10002000000000000000000000000000EF240008B5
:10003000BB04000800000000ED240008F1240008C3
:100040006301000863010008630100086301000800
:1000500063010008630100086301000863010008F0
:1000600063010008630100086301000885040008BB
:1000700063010008630100086301000863010008D0
:1000800063010008630100086301000863010008C0
:10009000853C000863010008630100086301000853
:1000A00063010008630100086301000863010008A0
:1000B0006301000863010008630100086301000890
:1000C0006301000863010008630100086301000880
:1000D0006301000863010008630100086301000870
:1000E0006301000863010008630100086301000860
:1000F0006301000863010008630100086301000850
:10010000630100086301000863010008630100083F
:10011000630100086301000863010008630100082F
:10012000630100086301000863010008630100081F
:10013000DFF810D000F054F8004800478D3F000869
:10014000AFF30080300F0020064880470648004784
:10015000FEE7FEE7FEE7FEE7FEE7FEE7FEE7FEE777
:10016000FEE7FEE7732500083101000840EA0103BD
:100170009B0703D009E008C9121F08C0042AFAD25D
:1001800003E011F8013B00F8013B521EF9D2704721
:10019000D2B201E000F8012B491EFBD270470022C9
:1001A000F6E710B513460A4604461946FFF7F0FF76
:1001B000204610BD30B50B46014600202022012408
:1001C00009E021FA02F59D4205D303FA02F5491B25
:1001D00004FA02F52844151EA2F10102F1DC30BD3B
:1001E000064C074D06E0E06840F0010394E8070084
:1001F00098471034AC42F6D3FFF79EFFF83F000853
:100200001840000870B58C1810F8015B15F0070352
:1002100001D110F8013B2A1106D110F8012B03E09F
:1002200010F8016B01F8016B5B1EF9D12B0705D4A7
:100230000023521E0DD401F8013BFAE710F8013BF0
:10024000CB1A921C03E013F8015B01F8015B521E0C
:10025000F9D5A142D8D3002070BD000070B5044686
:1002600000688168C943C90717D1816821F001017D
:10027000816000F0B3FD05460AE000BF00F0AEFD6E
:10028000401B022804D920688068C043C00706D0FC
:1002900020688068C043C007F0D0002070BDA06A0D
:1002A00040F01000A062E06A40F00100E06201202E
:1002B00070BD10B50146406A826A12F0500F05D039
:1002C000006A026BBDE8104008461047816A41F49D
:1002D0000071816201688968C1F3424107290CD12C
:1002E000017B51B9816A21F480718162816AC904FC
:1002F00003D4816A41F00101816200F05FF910BD11
:1003000010B5406A816A41F040018162C16A41F0E2
:100310000401C16200F054F910BD10B5406A00F04C
:100320004EF910BDF8B500260446009600688168B5
:10033000C943C9072DD0816841F001018160164889
:1003400016490068B0FBF1F000E0401E0090002864
:10035000FBD100F043FD054616E000BF00F03EFD76
:10036000401B022810D920688068C043C0070BD00A
:10037000A06A40F01000A062E06A40F00100E06274
:1003800084F824600120F8BD20688068C043C0075D
:10039000E4D10020F8BD00007000002040420F00B2
:1003A0002DE9F843134947F6FF76F743B1F900000A
:1003B000B1F902504FF480583B4642460021009666
:1003C00003F0FAFD04B23B4642460021284600965F
:1003D00003F0F2FD00B2C2430648210A001D8471F9
:1003E000C1710272110A41722146BDE8F84302A0B0
:1003F00003F0E6BC8602002025642C25640D0A006B
:10040000FEE7000070B5194E1021304600F0E0FC08
:10041000174D50B10821304600F0DAFC28B1012117
:10042000284600F0D5FC01281FD10A2000F0C2FBAD
:100430001021304600F0CCFC0E4C18B9E07840F0AA
:100440001000E0700821304600F0C2FC18B9E078D6
:1004500040F02000E0700121284600F0B9FC01289E
:1004600003D1E07840F04000E07070BD001801401A
:10047000000801408A0200200020704700207047D9
:1004800000207047014800F0FBB90000D4020020B2
:1004900030B590F840500124AC40C56B6C600468E6
:1004A00063604368102B036803D099600068C260E2
:1004B00030BD9A600068C16030BD704772B6FEE71B
:1004C000F8B50024009490F824202546012A12D083
:1004D000012280F824204A681F23072A0DD20668CB
:1004E000776B521E02EB820293409F430B6893404E
:1004F0001F43776319E00220F8BD06680D2A0AD26F
:10050000376BD21F02EB820293409F430B689340EC
:100510001F43376309E0F76A0D3A02EB820293400A
:100520009F430B6893401F43F7620A6807230668DE
:100530000A2A0AD3F7680A3A02EB420293409F4321
:100540008B6893401F43F76008E0376902EB420273
:1005500093409F438B6893401F4337610A68102A7A
:1005600001D0112A20D1124B02689A4217D1936808
:100570001B0219D4936843F400039360096810299F
:1005800012D10C490C4A0968B1FBF2F101EB81016F
:10059000490000E0491E00910029FBD104E0816A76
:1005A00041F020018162012480F824502046F8BDEA
:1005B000002401407000002040420F007047704747
:1005C000704700002DE9F04104004FF000057FD096
:1005D000A06A002628B9E66284F82460204600F06C
:1005E00081F82046FFF73AFEA16AC90600D420B17F
:1005F000A06A40F01000A0626AE0A16A21F488516C
:1006000041F00201A162334923688B42E16904D1C0
:10061000B1F5402F01D14FF40021277B4FF4807CAE
:1006200041EA470261680A43A168614508D001298F
:1006300006D0002194F814E0BEF1010F02D00AE0C8
:100640006146F7E7C7B1A76A47F02007A762E76AE4
:1006500047F00107E7625F6827F469470F435F606F
:10066000236899681C4F394011439960A16861451E
:100670000BD0012909D00CE0DFF860E0A7690EEB90
:1006800047370F4347F40061E5E7218A0D05A5F5DB
:1006900080152168CB6A23F470032B43CB62216859
:1006A00089680F4B1940914208D1E662A16A21F096
:1006B000020141F00101A162BDE8F081A06A20F0D1
:1006C000020040F01000A062E06A40F00100E06229
:1006D0000120F1E7003C0140FDF7E1FF00E0FFFFF2
:1006E000FE0E1FFF70B586B00025064600950195E9
:1006F0000295039500681A4988422ED119498869E4
:1007000040F400708861886900F400700490886982
:1007100040F0040088618869694600F00400049094
:1007200030200090032001900F4800F055FA104C43
:100730000E48C4E900058020C4E902504000206151
:10074000800060612020C4E90605204600F0BCF965
:1007500008B1FFF7B3FE3462666206B070BD0000F8
:10076000002401400010024000080140080002403F
:10077000D40200202DE9F047894604463B49006831
:100780003B4F0E1D9046884201D0B84207D13068D9
:1007900010F4702F03D001252846BDE8F08794F8A7
:1007A000240001280CD0012084F824002046FFF703
:1007B000B9FD05004FF0000004D084F82400EBE7F9
:1007C0000220EAE7A16A40F60162914341F4807198
:1007D000A1622168B94218D1326812F4702F14D086
:1007E000A16A41F48011A1623168490505D5A16A69
:1007F00021F4005141F48051A162A16AC9040AD5D3
:10080000E16A21F00601E16206E0A26A22F48012A8
:10081000A2624968E9E7E06284F82400216A154889
:100820008862216A1448C862216A144808632168F2
:100830006FF0020008602068816841F48071816077
:10084000216843464A464C31206A00F07BF9206813
:100850008168C1F342410729816803D041F48011C6
:10086000816099E741F4A001FAE70000002401400B
:1008700000280140B30200081B0300080103000820
:100880002DE9F05FC16B0A6801680B68046C4FF0DA
:10089000040808FA04F8844D844E854FDFF814C22A
:1008A000DFF81492DFF814A2DFF814B2DFF814E2D4
:1008B00018EA020F65D05FEA437862D50A689206AB
:1008C00003D40A6822F004020A60DFF8F0814FF4D2
:1008D0008062016808F1140813011402414524D90B
:1008E000A9420DD0B1420FD0B9421AD0614515D0FE
:1008F000494515D0514501D1120312E0594501D1A6
:1009000004220EE0714501D140220AE06D4D1435FC
:10091000A94206D06B4A2832914201D11A4600E022
:1009200022466749091F0A6029E0A94213D0B14253
:1009300015D0B94220D061451BD049451BD0514547
:1009400002D14FF4800217E0414502D14FF080629E
:1009500012E0594501D104220EE0714501D1402237
:100960000AE0584D1435A94206D0564A2832914221
:1009700001D11A4600E022464B4908394A60C16A53
:1009800071E04FF0020808FA04F818EA020F70D07C
:100990005FEA83786DD50A68920606D40A6822F069
:1009A0000A020A60012180F82110DFF810814FF45B
:1009B0000072016808F1140813011402414524D99A
:1009C000A9420DD0B1420FD0B9421AD0614515D01D
:1009D000494515D0514501D1120312E0594501D1C5
:1009E00002220EE0714501D120220AE0354D143576
:1009F000A94206D0334A2832914201D11A4600E07A
:100A000022462F49091F0A6029E0A94213D0B142AA
:100A100015D0B94220D061451BD049451BD0514566
:100A200002D14FF4001217E0414502D14FF000729D
:100A300012E0594501D102220EE0714501D1202278
:100A40000AE0204D1435A94206D01E4A28329142B0
:100A500001D11A4600E02246134908394A600021B4
:100A600080F82010816A00291CD0BDE8F05F08479B
:100A7000FFE70825A540154214D01A0712D50A68C9
:100A800022F00E020A6090F84020C36B012101FAA7
:100A900002F25A60816380F82110002180F8201052
:100AA000016BE0E7BDE8F09F080002401C00024037
:100AB0003000024044000240580002406C000240F6
:100AC000080402401C04024030B560B11A4B0268B1
:100AD00014219A4209D2194B1344B3FBF1F1890056
:100AE000016417490AE0012030BD134B5B421344F7
:100AF000B3FBF1F1890001640F490839C163022198
:100B000080F82110136843F6F0718B43F0E901146B
:100B10002143D0E902452C43214304692143446920
:100B2000214384692143194311600021416301225B
:100B300042770177084630BD08040240F8FFFDBF48
:100B40000000024070B5044690F8200000250128FE
:100B50000CD0012084F8200094F821600020012EA0
:100B600006D084F820000225284670BD022070BD02
:100B7000022684F82160A0632068066826F001063A
:100B800006602046FFF784FCE06A002820680168C0
:100B900002D041F00E0106E021F00401016020685E
:100BA000016841F00A0101602068016841F001011B
:100BB0000160D9E770B5044600F010F90546601CE5
:100BC00002D004480078044400F008F9401BA04219
:100BD000FAD370BD640000202DE9F84FDFF8C8910A
:100BE0000024A9F1040B23460F2709F1040AABF1F5
:100BF000040ED1E00125A54006EA0502AA4276D1FD
:100C0000DFF8A8C14E68A6EB0C0866452BD00DDCBA
:100C1000032E34D005DC36B3012E19D0022E2FD18D
:100C20001BE0112E16D0122E2AD119E0B8F5881F1C
:100C300019D006DCB8F5803F15D0B8F5801F1FD15C
:100C400011E0B8F5001F0ED0B8F5041F18D10AE066
:100C5000CB6815E0CB681B1D12E0CB6808330FE0B2
:100C6000CB680C330CE08B682BB1012B4FF00803E1
:100C700003D0456104E0042302E0056100E00023A5
:100C8000FF2A01D8064601E000F104064FEA840578
:100C900001D9A5F12005D6F8008007FA05FC28EA5D
:100CA0000C0803FA05F548EA0508C6F800804D6807
:100CB000ED0070D53E4DAE6946F00106AE61AD69FE
:100CC00024F0030605F0010500953A4D06EB050CEE
:100CD000DCF80850A607360F07FA06F825EA0805DB
:100CE000DFF8D480404503D14FF0000825E052E002
:100CF000DFF8C880404502D14FF001081DE0DFF861
:100D0000C080404502D14FF0020816E0DFF8B48001
:100D1000404502D14FF003080FE0DFF8AC804045BA
:100D200002D14FF0040808E0DFF8A080404502D16E
:100D30004FF0050801E04FF0060808FA06F848EA07
:100D40000508CCF808804D68D9F80060ED024D46E2
:100D500001D5164300E096432E604D68DAF8006036
:100D6000AD02554601D5164300E096432E604D680E
:100D7000DBF80060AD035D4601D5164300E0964305
:100D80002E604D68DEF80060ED03754601D5164310
:100D900000E096432E60641C0A681646E2407FF429
:100DA00029AFBDE8F88F00000804014000001110D1
:100DB000001002400000014000080140000C01400A
:100DC000001001400014014000180140001C0140C7
:100DD0008068084000D0012070470000014880680A
:100DE00070470000640000200248816802781144C6
:100DF0008160704764000020074810B5016841F029
:100E000010010160032000F075F80F2000F006F8D3
:100E100000F024F8002010BD0020024070B50D4DF8
:100E200004464FF47A712878B1FBF0F00A4909685A
:100E3000B1FBF0F001F004F848B9102C07D2002201
:100E40002146501E00F036F800206C6070BD012075
:100E500070BD000064000020700000200C4808B540
:100E6000816941F001018161816901F00101009115
:100E7000C16941F08051C161C06900F080500090AB
:100E80000448416821F0E06141F00071416008BD13
:100E90000010024000000140002809DB00F01F02A2
:100EA000012191404009800000F1E020C0F80011CC
:100EB00070470000F0B40E4B1B680C46C3F30223CE
:100EC000C3F10705042D00D90425191D072901D2F6
:100ED000002300E0DB1E012606FA05F1491E214031
:100EE00099409E40761E16403143F0BC02F078BF18
:100EF0000CED00E0064900F0070208684FF6FF031A
:100F0000184040EA0220034A10430860704700007E
:100F10000CED00E00000FA0510B50C0607D501F055
:100F2000070101EB810100EBC100283005E001EB76
:100F3000810100EBC10000F5B47099B232B1012219
:100F400002730181190C4181002010BD002202733F
:100F5000C180F9E7704701EB810200EBC202D0F8D3
:100F6000EC02D26B01F069BE01EB810200EBC20220
:100F7000D0F8EC02D2F87C2101F0C2BE70B5044674
:100F80000B0601F0070000EB800104EBC1014FF0FC
:100F900001024FF0000503D581F82920283103E034
:100FA00081F8695101F5B471087094F8A80201281C
:100FB00008D084F8A822206802F0F8FA84F8A85231
:100FC000002070BD022070BD70B5044601F00F0016
:100FD0006268904201D9012070BD0B0601F0070044
:100FE00000EB800104EBC1014FF001024FF000055E
:100FF00003D581F82920283103E081F8695101F5F2
:10100000B4718D70087094F8A802012808D084F893
:10101000A822206802F067FB84F8A852002070BD67
:10102000022070BD2DE9F05F04685FEA424C0B7846
:101030008D69B4F850C04FF000064BF68F7948F236
:10104000800A48F68F7B48F2C00E4FF480672AD59D
:101050004FF0020808EBC308C44407EB4C07E45BFD
:10106000C4F30904A54203D32D1B8D6101D00BE00D
:101070008E61066836F8235005EA090585F40055A7
:1010800045EA0A0526F82350520609D50D7803686B
:1010900033F8252002EA0B0242EA0E0223F825204B
:1010A00084B30A8929E04FF0060808EBC308C4445A
:1010B00007EB4C07E45BC4F30904A54203D32D1BE3
:1010C0008D6101D00BE08E61066836F8235005EA89
:1010D000090585F4005545EA0A0526F8235052060D
:1010E00009D40B78056835F8232002EA0B0242EA9E
:1010F0000E0225F823202CB14A894969006823464D
:1011000002F0CAFD2046BDE8F09F2DE9F05F0546DC
:1011100000680C465FEA426C16468B692278B0F88C
:1011200050C048F68F774CF280094FF4004B4FF6D1
:10113000FF7E4FF4806A4FF0000172D54FF0020835
:1011400008EBC208E0440AEB480C30F80C00C0F38E
:101150000900834211D91B1AA3610FD0730407D56C
:101160002E6836F822303B4043EA090326F8223045
:1011700094F82420012A47D052E1A161607810B18F
:10118000012813D01AE02868B0F85030184400EB5A
:101190000210B0F80424C2F30902A0F80424B0F845
:1011A000042442F40042A0F8042407E02868B0F8C0
:1011B0005030184400EB0210A0F80414627828683C
:1011C00012B1012A11D018E0B0F85010084421786B
:1011D00000EB0110B0F80C14C1F30901A0F80C14D5
:1011E000B0F80C1441F4004105E0B0F85020104470
:1011F000227800EB0210A0F80C1421782846FFF7A3
:10120000AAFE700472D40BE1626902446261E26971
:101210000244E2612369226A9A4203D31846111AF2
:1012200004E03EE084F824100AB11046216261789F
:1012300011B1012929D031E02968B1F850201144B9
:10124000227801EB0211B1F80424C2F30902A1F8DB
:10125000042401F204413E2807D94209C30600D103
:10126000521E0B884BEA822207E048B14208C307AE
:1012700000D0521C0B880EEA822213430B800DE033
:101280000A8842F400420A8008E02968B1F8502038
:101290001144227801EB0211A1F8040483B22289DF
:1012A000BAE04FF0060808EBC208E0440AEB480C2D
:1012B00030F80C00C0F30900834211D31B1AA3615C
:1012C0000FD0730407D42E6836F822303B4043EA2F
:1012D000090326F8223094F82420012A51D09FE0F7
:1012E000A161607818B1012814D01BE03FE02868A4
:1012F000B0F85030184400EB0210B0F80424C2F3E8
:101300000902A0F80424B0F8042442F40042A0F832
:10131000042407E02868B0F85030184400EB0210AD
:10132000A0F804146278286812B1012A11D018E0DC
:10133000B0F850100844217800EB0110B0F80C14FC
:10134000C1F30901A0F80C14B0F80C1441F40041E9
:1013500005E0B0F850201044227800EB0210A0F80D
:101360000C1421782846FFF7F6FD700458D4227833
:10137000296831F82200384040EA090021F82200AB
:101380004EE0626902446261E2690244E2612369FB
:10139000226A9A4203D31846111A216204E00AB164
:1013A0001046216284F824106278296812B1012A5B
:1013B00028D02FE0B1F850201144227801EB02111F
:1013C000B1F80C24C2F30902A1F80C2401F20C417B
:1013D0003E2807D94209C30600D1521E0B884BEAAA
:1013E000822207E048B14208C30700D0521C0B8894
:1013F0000EEA822213430B800CE00A8842F400427A
:101400000A8007E0B1F850201144227801EB021164
:10141000A1F80C04628983B26169286802F05AFC61
:101420002278296831F8220048F6BF73184080F00E
:10143000300048F28003184321F822000020BDE864
:10144000F09F2DE9F04104460F0601F0070000EB84
:10145000800104EBC1014FF001064FF0000503D5F8
:1014600081F82960283103E081F8695101F5B471F0
:10147000022B08700A61CB7000D10D7194F8A8029C
:10148000012809D084F8A862206801F03FFF2846AF
:1014900084F8A852BDE8F0810220FBE710B501F006
:1014A000070404EB840100EBC101C1E95F230022C2
:1014B000C1F8842181F8692181F86841006801F54B
:1014C000B47102F065F9002010BD70B504460D46F8
:1014D00001F007006168884201D9012070BD29062A
:1014E0004FF000064FF0010207D500EB800104EB3E
:1014F000C10181F82920283107E005EB850104EBC3
:10150000C10181F8696101F5B4718A70087094F8BD
:10151000A802012807D084F8A822206802F01FF949
:10152000680702D006E0022070BD04F52C71206827
:1015300002F0D7F884F8A862002070BD10B501F061
:10154000070404EB840100EBC101C1E90F23012270
:1015500081F84C208B6400234B6481F8292001F82A
:10156000284F006802F014F9002010BD1FB5044692
:10157000006802F08DFB010403D5204600F0E0FD79
:101580001FBD41050DD5206830F8441F21F480614E
:101590000180204600F010F90021204600F027F9D4
:1015A0001FBD410405D5206830F8441F21F4804157
:1015B00074E0810405D5206830F8441F21F40051FF
:1015C0006CE0C10414D5206830F8401F21F00401FC
:1015D0000180206830F8401F21F00801018020467A
:1015E00000F0FDF8206830F8441F21F4805155E0E8
:1015F000010540D5D4F800200020694632F820309B
:1016000021F81030401CC0B20828F7D332F8400F40
:1016100040F001001080206830F8402F22F00102D5
:1016200002802068B0F844205205FBD530F8442FE2
:1016300022F4806202800020236831F8102023F811
:101640002020401CC0B20828F6D3206830F8401F84
:1016500041F008010180206830F8441F21F4006146
:101660000180206830F8401F41F0040101802046CD
:1016700000F0F2F81FBD810509D5206830F8441F3D
:1016800021F400710180204600F0ADF81FBDC005B7
:10169000FCD5206830F8441F21F4807101801FBD03
:1016A0002DE9F04186B0040004D094F8A902002589
:1016B00020B108E0012006B0BDE8F08184F8A8520E
:1016C000204600F05BF8032084F8A902206802F0AD
:1016D00001F804F11001142288466846FEF746FD21
:1016E00094E80F0001F060FF0227D0BB00212068C2
:1016F00002F0E8FA002001260EE000BF00EB8001B6
:1017000004EBC10181F8296001F8280F401CCD705D
:101710000D614D61C0B28D6161688142EED80020DB
:1017200012E000BF00EB800104EBC10181F86951B8
:1017300081F8680181F86B51C1F87851C1F87C518A
:10174000401CC0B2C1F8805161688142EAD81422BD
:1017500041466846FEF70AFD94E80F0001F0B1FF2C
:1017600010B184F8A972A5E784F8245084F8A9621E
:10177000206801F0A4FF00209DE7000008B5006884
:101780000B49884212D10B48C16941F40001C16183
:10179000C069002200F40000009011461420FFF7F9
:1017A00089FBBDE808401420FFF776BB08BD0000A8
:1017B000005C00400010024070B5044680680125BE
:1017C000022801D0FEF77AFE2946D4F8EC0201F097
:1017D00074FBD4F8EC02BDE8704001F030BBD0F8E7
:1017E000EC0201F054BBD0F8EC0201F05ABB10B58A
:1017F000044690F8A80201280BD0012084F8A80222
:1018000084F82410206802F05FFA002084F8A8020F
:1018100010BD022010BDD0F8EC2200F52C7110464E
:1018200001F057BB10B5044690F8A802012810D06B
:10183000012084F8A802206802F01BFA012120464A
:10184000FFF788FB206801F038FF002084F8A80229
:1018500010BD022010BD000010B50446D0F8EC0207
:1018600001F076FBA069002804D00348016841F02C
:101870000601016010BD000010ED00E02DE9F84305
:1018800005460078354CC00754D0E0690026C000FA
:1018900008D4E06940F08050E061E069012600F082
:1018A000805000902E480168C90512D40168804616
:1018B00041F480710160FFF791FA074605E000BF2F
:1018C000FFF78CFAC01B642823D8D8F80000C005A5
:1018D000F6D5206A10F4407021D0A98801F4407137
:1018E00081421CD0206A1F49012220F440700A6006
:1018F00000220A602062C00711D0FFF76FFA074686
:1019000041F2883808E000BFFFF768FAC11B414583
:1019100002D90320BDE8F883206A8007F4D5206A45
:10192000696820F44070084320621EB1E06920F02D
:101930008050E0612878800705D56068A96820F4A8
:101940004040084360602878C00605D56068696932
:1019500020F48000084360600020DBE700100240B4
:1019600000700040400442422DE9F0470F46050058
:1019700061D0434E306800F00700B84209D23068A9
:1019800020F0070038433060306800F00700B842AC
:1019900051D128683B4C810712D5400703D56068B8
:1019A00040F4E06060602878000703D5606840F488
:1019B000605060606068A96820F0F00008436060D3
:1019C0002878C00728D06868012810D0216802282C
:1019D00010D0890700292EDA616821F00301014344
:1019E0006160FFF7FBF9804641F288390DE021681C
:1019F0008903EFE78901EDE7FFF7F0F9A0EB0801B4
:101A0000494502D90320BDE8F0876068696800F0A5
:101A10000C00B0EB810FEFD1306800F00700B84246
:101A20000BD9306820F0070038433060306800F090
:101A30000700B84201D00120E5E72878400705D526
:101A40006068E96820F4E060084360602878000777
:101A500006D56068296920F4605040EAC1006060E2
:101A600000F038F86168084AC1F30311515CC840BE
:101A70000649086006480068FFF7D0F90020C2E771
:101A80000020024000100240DE3F000870000020ED
:101A9000680000200448054900684968044AC1F309
:101AA0000221515CC84070477000002000100240C5
:101AB000EE3F00080448054900684968044AC1F33C
:101AC000C221515CC84070477000002000100240E5
:101AD000EE3F00080E4A51680E4801F00C03042B3B
:101AE00011D0082B0FD10C48C1F38343C903C05C4C
:101AF0000AD55168084AC1F34041921E515C054A1B
:101B00005043B0FBF1F07047044948437047000070
:101B10000010024000127A00CE3F000800093D008C
:101B20002DE9F84F040070D02078C04DC00749D08F
:101B30006868C0F38100012807D06868C0F381009D
:101B4000022809D16868C00306D52868800339D502
:101B500060680028E7D035E06068B0F5803F0BD0C2
:101B600010B1B0F5A02F11D0286820F48030286083
:101B7000286820F4802002E0286840F48030286043
:101B8000606890B1FFF72AF906460AE0286840F439
:101B900080202860F0E700BFFFF720F9801B642851
:101BA00073D828688003F7D50CE0FFF717F90646CD
:101BB00005E000BFFFF712F9801B6428F0D8286801
:101BC0008003F7D420789A4E80074FF001094FF038
:101BD000000839D5686810F00C0F07D06868C0F3AA
:101BE0008100022809D16868C00306D428688007EC
:101BF00014D52069012808D110E02069B0B1C6F8D9
:101C00000090FFF7EBF8074605E00AE1FFF7E6F87A
:101C1000C01B0228C4D828688007F7D528686169E6
:101C200020F0F80040EAC10028600DE0C6F800800E
:101C3000FFF7D4F8074604E0FFF7D0F8C01B0228EE
:101C400023D828688007F7D4207800072CD5794856
:101C5000A169D9B1C0F80090FFF7C0F8074604E0C9
:101C6000FFF7BCF8C01B02280FD8686A8007F7D5B9
:101C700071484FF4FA510068B0FBF1F0009000BFDA
:101C80000098411E0091FAD20EE080E0C0F800807A
:101C9000FFF7A4F8074604E0FFF7A0F8C01B0228EE
:101CA00075D8686A8007F7D42078400760D5E8695E
:101CB0000027C00008D4E86940F08050E861E86976
:101CC000012700F0805000905C480168C90513D4DA
:101CD0000168834641F480710160FFF77FF8824616
:101CE00006E000BFFFF77AF8A0EB0A0064284ED8A0
:101CF000DBF80000C005F5D5E06801280AD008B17E
:101D0000052813D0286A20F001002862286A20F0F4
:101D1000040002E0286A40F001002862E06841F215
:101D2000883B98B1FFF75AF882460BE0286A40F0EA
:101D300004002862EEE700BFFFF750F8A0EB0A01AD
:101D400059455AD8286A8007F6D50CE0FFF746F8BF
:101D5000824605E0FFF742F8A0EB0A0159454CD84E
:101D6000286A8007F6D41FB1E86920F08050E86146
:101D7000E06988B36968C1F38101022944D002286F
:101D8000C6F8608004D0FFF729F8044638E034E054
:101D9000FFF724F8074604E0FFF720F8C01B0228ED
:101DA0002BD828688001F7D4206AB0F5803F05D190
:101DB0006868A16820F4003008436860D4E908012D
:101DC0000843696821F4741108436860C6F860909C
:101DD000FFF704F8044606E025E000BFFEF7FEFF2B
:101DE000001B022809D828688001F7D51BE000BF36
:101DF000FEF7F4FF001B022802D90320BDE8F88F8C
:101E000028688001F4D40EE00128F7D06868226ABF
:101E100000F48031914204D1616A00F4701088426C
:101E200001D00120EAE70020E8E7000000100240AE
:101E300000004242800442427000002000700040D6
:101E400010B5401EB0F1807F01D3012010BD4FF0CE
:101E5000E02460610F21601701F0C2FF0020A06143
:101E600007202061002010BD70B5040004D094F854
:101E70004100002510B106E0012070BD84F84050FB
:101E8000204600F023F8242084F841002068C1682F
:101E900021F40051C160204600F06CFB206801690C
:101EA00021F4904101612068416921F02A014161DA
:101EB0002068C16841F40051C1606564202084F845
:101EC000410084F842006563002070BD30B585B0E4
:101ED00000240094019402940394006814498842F9
:101EE00024D11448816941F480418161816901F400
:101EF00080410491816941F00401816180690E4D46
:101F000000F0040004904FF4007000900220019053
:101F10000320039069462846FEF75EFE2815CDE9AA
:101F20000004694628460294FEF756FE05B030BD0F
:101F30000038014000100240000801402DE9F8433C
:101F4000044690F841001F4616460D46202802D050
:101F50000220BDE8F8837DB176B1002060642120C5
:101F600084F84100FEF73AFFA6848046E684A06824
:101F7000B0F5805F02D003E00120EAE7206910B1EC
:101F80002E4600250EE000260CE08021204600F0C1
:101F90004DFBA0B9AEB116F8010B21684860E08C8A
:101FA000401EE084E08C43464FF00002009700287A
:101FB000EBD14FF04001204600F038FB30B1032058
:101FC000C7E735F8020BC0F30800E6E7202084F8E5
:101FD00041000020BDE7FEE7F0B500230A243025CC
:101FE00037261F4611E000BFB4EB107F02D905EB86
:101FF000107C01E006EB107C01F813C001EB430CF0
:1020000000015B1C8CF80170DBB29342ECD3F0BD95
:102010003EB50021174800910191154A02910260D6
:102020009215826001240473017502254FF4602229
:102030000561C2614160FEF7C5FA08B1FEF73EFADC
:102040000420CDE900040320029069460948FEF708
:1020500037FA08B1FEF732FA0520CDE900056946E6
:102060000448FEF72DFA002801D0FEF727FA3EBDFE
:1020700000240140A4020020054808B5416941F050
:1020800001014161406900F00100009008BD0000BD
:1020900000100240054808B5816941F004018161E2
:1020A000806900F00400009008BD000000100240AC
:1020B0000C4810B50A4901604FF4E131416000213C
:1020C00081600C22C160C0E904128161C161FFF727
:1020D000CBFE002803D0BDE81040FEF7EFB910BDDD
:1020E000003801401803002010B500220F491048A5
:1020F00000F07CFD08B1FEF7E1F90E490C4800F054
:102100004DFF08B1FEF7DAF90B49094800F051FB21
:1021100008B1FEF7D3F9064800F096FF002803D077
:10212000BDE81040FEF7CAB910BD00000000002055
:10213000600300207800002054000020FEE7FEE746
:102140002DE9F84F044640F68F7B48F60F794FF49F
:1021500080684FF0000AC0E1B0F8441011F00F059C
:1021600039D030F8256031047ED530F8251001EAE9
:102170000B0141F0800120F8251005EB850004EBF0
:10218000C00797F8740107F5B47700286DD0F87888
:1021900002286BD03978226832F8210048F68F7314
:1021A000184048F2C003184322F82100397820680B
:1021B00030F82120B0F8503052047DD5022202EBD5
:1021C000C1015A1808EB4201415A8905890D009155
:1021D00073D03A89DFE0C9062DD4018801EA0901EC
:1021E00041F400410180206804F12805B0F8503026
:1021F0002978022202EBC1015A1808EB4201405A29
:10220000C0F309006064E16B0844E06300212046EC
:10221000FEF7A1FE94F8240000289CD0A8690028AD
:1022200099D194F82400216840F08000A1F84C0076
:1022300084F824A051E1018804F5B4750A0521D57C
:10224000B0F850202B78062101EBC3010A4408EBBB
:102250004201405A04F52C71C0F30903EB61EA888E
:10226000206801F019FD02E0B0E070E080E0206835
:10227000018801EA0B0141F0800101802046FFF74F
:10228000CAFA2AE10904D5D5018801EA0B0141F017
:10229000800101802068B0F850202B78062101EBE6
:1022A000C3010A4408EB4201405A83059B0DEB61D0
:1022B00010D0696971B101E061E05FE0EA882068EF
:1022C00001F0EAFCE9696869084468610021204678
:1022D000FEF74AFE216808880205ABD4C0F301303E
:1022E0000328A7D0B1F850000844B0F80C14C1F38B
:1022F0000901A0F80C142A6900F20C403E2A09D901
:102300005109D20600D1491E02884FF4004343EA26
:10231000812109E0B2B15108D20700D0491C0288DE
:102320004FF6FF7303EA81210A430280216808887F
:102330004BF68F72104080F4405048F280021043F8
:102340000880CAE0018841F400410180EEE720687E
:10235000B0F850203B78062101EBC3010A4408EB9A
:102360004201415A8905890D009118D0FA8812E07E
:10237000324639462046FEF755FE00900FE0062211
:1023800002EBC1015A1808EB4201415A8905890D37
:10239000009104D07A897969009B01F07DFCF8698D
:1023A00000990844F8617969009808447861B8692F
:1023B00018B139690098814204D939782046FEF76E
:1023C000D3FD03E03946206801F0E2F930062FD54D
:1023D00005EB850004EBC001206830F8252002EAF7
:1023E000090242F4004220F8252091F82B00283100
:1023F00001281ED0F0056CD42068B0F850300D785C
:10240000022202EBC5021A4408EB4202805A8A6992
:10241000C0F30900824255D9121A8A6154D04A6920
:1024200002444A61CA691044C861206801F0B0F9E9
:1024300053E0C1F818A0087B524608B3700620D5B7
:10244000487810B1012812D03AE02068B0F8502046
:1024500010440A7800EB0210B0F80424C2F3090219
:10246000A0F80424B0F8042442F4004206E02068F6
:10247000B0F8503018440B7800EB0310A0F8042497
:102480001EE04B78206813B1012B11D018E0B0F892
:10249000502010440A7800EB0210B0F80C24C2F36C
:1024A0000902A0F80C24B0F80C2442F4004205E024
:1024B000B0F8503018440B7800EB0310A0F80C244F
:1024C000097802E0C1F818A0E9B22046FEF743FD02
:1024D00003E032462046FEF718FE2068B0F84410AC
:1024E00009043FF539AE0020BDE8F88F704770470A
:1024F000FEF77ABC30B595B028216846FDF74FFE4F
:1025000014210AA8FDF74BFE18210FA8FDF747FE7E
:1025100001210804CDE90010002402940225049151
:10252000CDE907504FF4E01009906846FFF7F8FA3C
:1025300008B172B6FEE70F20CDE90A054FF48060BE
:10254000CDE90C4002210AA80E94FFF70DFA08B15C
:1025500072B6FEE712200F904FF4004011901494D1
:102560000FA8FFF78BF9002801D072B6FEE715B06F
:1025700030BD704770B5044600680169E26821F417
:102580004051114301612169A06808436169084312
:102590002168CA6841F20C639A430243CA6020680A
:1025A0004169A26921F44071114341611E492068CB
:1025B000884202D1FFF77EFA01E0FFF76BFA00EBE9
:1025C000C00101EB0012606864218000B2FBF0F3EF
:1025D000B3FBF1F36FF018067343B2FBF0F5B2FBF7
:1025E000F0F605EB8305322303EB0515B5FBF1F59A
:1025F000B6FBF1F605F0F00505EB0615B2FBF0F6BB
:10260000B2FBF0F0B0FBF1F06FF01802504306EBB4
:10261000800003EB0010B0FBF1F0216800F00F0028
:102620002844886070BD0000003801402DE9F04169
:10263000984617460E460446069D27E0681C25D09E
:102640002DB1FEF7CBFBA0EB0800A8421ED92068F5
:102650000C3050E8001F21F4D07140E80012002A2D
:10266000F5D12068143050E8001F21F0010140E846
:102670000012002AF5D1202084F8410084F842009D
:10268000002084F840000320BDE8F0812068006845
:1026900036EA000004D00020B842CFD00020F3E793
:1026A0000120F9E7D0F8B80200210175084670470B
:1026B00070B50546D0F8B842D5F8BC226178D2682A
:1026C00020789047022322460121284600F0AEFBE5
:1026D000002070BD70B50446812100F0A5FA0025E8
:1026E00001212046E56200F09FFAC4F86C51D4F84D
:1026F000B80248B1D4F8BC0204F52E748068804753
:10270000206800F0FEFD2560002070BD10B5D0F8F7
:10271000B8422169012908D1D0F8BC022378617838
:10272000C2681846904700202061002010BD0000BC
:102730000A21018000487047680200208B21018037
:1027400000487047B80000208B2101800048704786
:10275000440100208B21018000487047D0010020F7
:1027600070B50446002620230322812100F052FB8D
:1027700001250623032229462046E56200F04AFB94
:102780001820C4F86C5100F0BDFDC4F8B80270B157
:10279000054600202875D4F8BC0240688047022313
:1027A0002A460121204600F041FB304670BD01263B
:1027B000FBE702460220002902D00020C2F8BC122A
:1027C000704710B5134690F89C42D0F8B822032CFD
:1027D00008D1147D34B9012414750A46812100F012
:1027E000C0FB0146084610BDF8B505460022D0F8EA
:1027F000B802ADF800200E781346144616F06006B5
:1028000025D0202E02D0402E58D160E04A78921E6A
:102810000A2A53D2DFE802F00F08525252525213E2
:102820000B058978416050E00122011D36E049889E
:10283000090A816049E0012200F108012EE001222D
:102840000261CA880146284600F07AF83DE04E78D9
:1028500036B1062E0BD00A2E24D00B2E2ED129E015
:1028600095F89C02032829D10222694616E048887F
:102870002226B6EB102F07D1CA88022A00D90222DD
:10288000D5F8BC02036833E02126B6EB102F2FD118
:10289000CA88184B092A2BD9092229E0284600F0BA
:1028A00069F812E095F89C22032A07D1012200F171
:1028B0000C01F3E795F89C22032A04D0284600F087
:1028C00034F8022401E08978C1602046F8BD4878D8
:1028D00001280DD1C988142904D0082906D004295B
:1028E00004D005E0034B0A46163301E0024B0A46CA
:1028F0001946D3E75C020020B000002010B5D0F8E4
:10290000B42252689047002010BD134610B50A4605
:10291000002100F08BFA002010BD134610B50A46C6
:10292000002100F01EFB002010BD10B504468021E0
:1029300000F0FCFA2046BDE81040002100F0F6BA95
:1029400010B50323C0F85C21C0F89432C0F86021B0
:1029500013460A46002100F069FA002010BD10B5A8
:1029600005210023C0F894121A46194600F05EFAB9
:10297000002010BD10B50223C261C0F8943202627B
:1029800013460A46002100F0ECFA002010BD10B5F5
:1029900004210023C0F894121A46194600F0E1FA07
:1029A000002010BD10B50A46024903A000F0EEF861
:1029B000004810BD24060020437573746F6D2048D5
:1029C000494420436F6E666967000000122008804A
:1029D000004870472000002010B50A46024903A0B5
:1029E00000F0D4F8004810BD24060020437573742D
:1029F0006F6D2048494420496E7465726661636555
:102A00000000000004200880004870471C000020DF
:102A100010B50A46024903A000F0B8F8004810BDFE
:102A20002406002053544D6963726F656C656374AE
:102A3000726F6E696373000010B50A46024903A005
:102A400000F0A4F8004810BD2406002053544D3374
:102A50003220437573746F6D2048756D616E206907
:102A60006E746572666163650000000010B51A201F
:102A700008800A480168001D0468001D00680818E5
:102A800009D008220649FFF7A7FA054904221031A8
:102A90002046FFF7A1FA0248801E10BDE8F7FF1F8D
:102AA00036000020F8B504460020ADF80000488844
:102AB0000D46010A082948D2DFE801F0470409174A
:102AC00047473C45D4F8B012207C0A6819E0207CC6
:102AD00002260028D4F8B40205D0C16A68468847A7
:102AE000014646703EE0816AF8E7C0B206282CD263
:102AF000DFE800F0030A1014181CD4F8B002426892
:102B000005E0694690471CE0D4F8B0028268E2B163
:102B1000207CF6E7D4F8B002C268F8E7D4F8B00237
:102B20000269F4E7D4F8B0024269F0E7D4F8B002E1
:102B30008269ECE7207C40B9D4F8B402416B684666
:102B4000884701460EE0207C20B129462046FFF749
:102B5000ECFEF8BDD4F8B402016B68468847014624
:102B600007204870BDF8000048B1EA8852B182429F
:102B700000D90246ADF800202046FFF7FBFEE888AA
:102B80000028E6D12046FFF702FFF8BD70B500230C
:102B900000281ED00446002502E06D1CEDB2641C26
:102BA0002678002EF9D1022404EB45041480127813
:102BB000CA545B1C0322CA5400245B1C06E0CA549E
:102BC0005B1CDAB28C54521CD3B2401C0278002A2F
:102BD000F5D170BD01004FF0000004D0012901D0F3
:102BE000022901D0022070470120704710B580B142
:102BF000D0F8B43213B10023C0F8B43209B1C0F830
:102C0000B012012180F89C12027000F0BBF8002085
:102C100010BD022010BD10B5D0F8C002FEF7D4F9E7
:102C2000BDE81040FFF7D6BF10B5D0F8C002FEF7E0
:102C3000A5F9BDE81040FFF7CDBF2DE9F0411746DB
:102C4000044651B1D4F8B40242691AB194F89C0216
:102C5000032851D00220BDE8F081D4F89432002539
:102C600004F11400022B03D0042B3AD0C3B33CE090
:102C7000D0E903639E4207D9F11AC1608AB239468E
:102C80002046FFF74AFE12E08068B0FBF3F103FB39
:102C9000110199B9984211D3D4F8981288420DD2F3
:102CA000002211462046FFF738FEC4F89852002350
:102CB0001A461946204600F0B9F816E0D4F8B402D6
:102CC000C16829B194F89C02032801D120468847A5
:102CD0008021204600F02AF92046FFF740FE04E05C
:102CE000FFE78021204600F021F994F8A002012896
:102CF00004D184F8A05201E0204690470020AAE7C2
:102D000070B51546044649B1D4F8B40282691AB1C7
:102D100094F89C02032830D0022070BDD4F894129D
:102D200004F5AA70032902D005291ED027E0D0E9B6
:102D300003218A420BD9531AC3600846834200D349
:102D400003469AB229462046FFF7DFFD17E0D4F884
:102D5000B402016929B194F89C02032801D12046EC
:102D600088472046FFF713FE09E000200146C4F81B
:102D70009402204600F0DAF801E020469047002057
:102D800070BD000010B519490446C1F8EC02C0F846
:102D9000C0121748086008204860022088600020A0
:102DA0008861C86108620846FEF77AFC08B1FDF741
:102DB00085FB0022D4F8C0021823114604F53074B4
:102DC000FEF7AAF85823002280212068FEF7A4F815
:102DD0009823002281212068FEF79EF8D823002244
:102DE00001212068FEF798F8002010BD400800205F
:102DF000005C00400A0601F07F01D0F8C00201EB40
:102E0000810100EBC10002D590F82A00704790F8CC
:102E10006A01704710B51C461346D0F8C00222461E
:102E2000FEF70FFBBDE81040FFF7D4BE10B5D0F899
:102E3000C002FEF733FBBDE81040FFF7CBBE70B514
:102E40000022044640231146FFF7E4FF40260125F7
:102E5000C4F864613346002280212046C4F85851EA
:102E6000FFF7D8FF6662A56184F89C520020C4F881
:102E700094026060C4F8A402D4F8B80228B1D4F86F
:102E8000B4020021426820469047002070BD90F8AF
:102E90009C12042903D190F89D1280F89C12002006
:102EA000704710B590F89C12032904D1D0F8B412E1
:102EB000C96901B18847002010BD01740020704726
:102EC00010B5D0F8C002FEF792FCBDE81040FFF745
:102ED00081BE70B5044600F52A70054600F04AF838
:102EE0000120C4F89402B4F8AE02C4F8980294F831
:102EF000A80210F01F010AD001290DD0022910D01C
:102F000000F08001204600F011F8002070BD294635
:102F1000204600F09EF8F8E72946204600F0CAF95E
:102F2000F3E72946204600F01DF9EEE710B5D0F88A
:102F3000C002FEF7CAFABDE81040FFF74BBE10B55D
:102F4000D0F8C002FEF76EFCBDE81040FFF742BEAD
:102F500090F89C1280F89D12042180F89C120020A9
:102F6000704710B5D0F8C002FEF7E8FABDE810408F
:102F7000FFF730BE0A7802704A7842708A78CB78C0
:102F800002EB032242800A794B7902EB0322828012
:102F90008A79C97902EB0121C1807047024600207D
:102FA00011B1C2F8B41270470220704710B5D0F8C2
:102FB000B42202241AB11268904700B900242046B6
:102FC00010BD000070B50E461E4D8978044629706C
:102FD000012931D894F89C0202280BD003280FD085
:102FE00031462046FFF7A1FC29782046BDE8704015
:102FF000FFF784BCD9B10320616084F89C0209E02A
:1030000071B16068884212D0C1B22046FFF776FCE9
:10301000297861602046FFF7C9FF02280CD006E03E
:10302000022084F89C0220466160FFF767FC20467E
:10303000BDE87040FFF7ABBC31462046BDE87040AC
:10304000FFF773BC7400002010B5FFF778FF002075
:1030500010BD2DE9F0410A78002612F0600208D078
:10306000202A01D0402A70D1D0F8B422926890472B
:103070006DE04B78002201250A2B66D2DFE803F0D1
:10308000405D6557650805652C29FFF70BFD5EE07F
:1030900004468888D8B9C888C8B94888802816D214
:1030A00000F07F0794F89C02032810D084F89E72E9
:1030B00039462046FFF704FF2046FFF768FC1FB1A2
:1030C000022084F89C0242E084F89C523FE02046B3
:1030D0003BE0FFF777FF3AE0CB88012B35D190F842
:1030E0009C32012B04D0022B02D0032B2DD104E003
:1030F0008260012200F1080116E00122011D13E0A7
:1031000090F89C22012A03D0022A01D0032A1CD164
:10311000CA88022A19D1C560D0F8A41209B10321C6
:10312000C160022200F10C01FFF724FC0FE0498886
:1031300001290CD1C0F8A45211E090F89C32012B67
:1031400008D0022B06D0032B04D0FFF7EEFB30464D
:10315000BDE8F08149880129F9D1C0F8A422FFF720
:1031600016FCF4E72DE9F0410A46044610780027E2
:10317000097910F060030AD0202B01D0402B50D1E8
:10318000D4F8B40211468368204698478FE0C0F314
:103190004110012806D05078D0B301282AD0032846
:1031A0003FD107E0D4F8B402114683682046BDE859
:1031B000F041184794F89C02022802D0032872D1EB
:1031C0000AE071B380296ED02046FFF7AFFE802160
:1031D0002046FFF7ABFE6AE0508838B931B180294C
:1031E00004D0D08810B92046FFF7A0FE2046FFF794
:1031F000CEFB5CE094F89C020228E2D0032852D176
:10320000508898BB4806F1D02046FFF704FDEDE753
:10321000FFE794F89C020026022803D0032842D13D
:1032200012E040E009B180293DD1080601F07F009D
:1032300000EB800004EB800101D5143101E001F5C1
:10324000AA7102220E602AE0080601F00F0000EBCE
:10325000800004EB80000AD5806920B301F07F0074
:1032600000EB800004EB800514350BE01FE0D0F884
:103270005801C0B101F07F0000EB800004EB800535
:1032800005F5AA7541B1802906D02046FFF7B2FDA9
:1032900010B10120286000E02E600222294620465D
:1032A000FFF768FB03E011462046FFF73EFB384678
:1032B000BDE8F08170B5054608780C4610F0600056
:1032C00003D0202801D0402816D195F89C0201286F
:1032D00003D0022801D003280ED1207901280BD871
:1032E000D5F8B402826828469047E188014306D1A8
:1032F0002846FFF74CFB02E02846FFF716FB0020AC
:1033000070BD704700487047240800202DE9F04741
:103310000C78002630F8243048F68F121340CA7813
:10332000002A78D0012A7CD0022A02D0032A75D044
:10333000012648F28002134320F824300D7830F83B
:10334000253048F68F7423402B43134320F8253053
:103350000D7B48F2C00948F6BF734CF2800A4BF669
:103360008F77EDB3CD7891F800C0022D30F82C5056
:103370007DD048F68F6805EA0805154320F82C50E3
:10338000B0F8505091F800C0054405EB0C15B1F8A9
:1033900008C02CF0010CA5F800C4B0F8505091F80A
:1033A00000C0054405EB0C15B1F80AC02CF0010C67
:1033B000A5F808C44D78002D7ED00D7830F825C0D2
:1033C0005FEA4C4C07D530F825C00CEA040C4CEAF7
:1033D0000A0C20F825C091F800C030F82C5000E00D
:1033E00022E06D0606D530F82C50254045EA090547
:1033F00020F82C50CC780D78012C30F8254004EAC8
:1034000003047CD084F02003134320F82530C1E06E
:1034100001E006E002E043F400738AE743F4C0638E
:1034200087E743F4806384E74D784DB3B0F850509C
:103430000F78054405EB0715CF8827F00107A5F89D
:1034400000740F7830F827506D0606D530F82750F5
:10345000254045EA090520F82750CC78012C07D0F3
:103460000C7830F82410194081F0200104E064E069
:103470000C7830F824101940114320F8241090E003
:10348000B0F850300D78034403EB0513CD8825F0D8
:103490000105A3F80854B0F850300D78034403EB4D
:1034A0000513B3F80C54C5F30905A3F80C540D69C2
:1034B00003F20C433E2D00E045E00BD94FEA551CCA
:1034C000ED0601D1ACF1010C1D884FF4004848EA2B
:1034D0008C2C0BE035B34FEA550CED0701D00CF105
:1034E000010C1D884FF6FF7808EA8C2C45EA0C0584
:1034F0001D800D7830F825305B0408D500E046E0EB
:1035000030F82530234043EA0A0320F825300978B3
:1035100061B130F821303B4083F40053134320F86D
:1035200021303EE01D8845F40045E1E7018839403F
:1035300081F440511143018033E0254048F2801866
:1035400045EA08051AE791F800C030F82C506D04E0
:1035500006D530F82C50254045EA0A0520F82C50B5
:1035600091F800C030F82C506D0606D530F82C507C
:10357000254045EA090520F82C500D7830F8254003
:103580003C4084F44054144320F8254070E7144331
:1035900020F825400B7830F823103940114320F8EB
:1035A00023103046BDE8F087002070472DE9F04336
:1035B00091F80C804F780A7848F6BF7C4BF68F79EB
:1035C00048F2800348F2C0054CF2800648F68F743A
:1035D000B8F1000F28D0002F30F822704FEA47478B
:1035E00048D0002F05DA30F822702740374320F802
:1035F00022700A7830F822707F0605D530F82270E4
:1036000027402F4320F822700D7830F825202240E3
:10361000324320F825200C7830F8242002EA0C02EE
:103620001A4320F824201AE07FB130F82260760691
:1036300005D530F8226026402E4320F822600A7813
:1036400030F8221001EA0C010EE030F822506D042F
:1036500005D530F822502540354320F822500A780D
:1036600030F8221001EA0901194320F82210002045
:10367000BDE8F083002F05DA30F822702740374389
:1036800020F822700A7830F82260760605D530F8E6
:10369000226026402E4320F822600E7830F8262043
:1036A00022402A4320F826200C7830F8242002EA11
:1036B00009021A4320F82420C1E7002070470020A7
:1036C0007047012120F8401F002101808180018284
:1036D0000846704730F8401F21F43F410180002028
:1036E00070470020704730B50A7BB2BB4A7848F675
:1036F0008F7548F28004C2B10B7830F8232052064F
:1037000007D530F823202A4048F2C0052A4320F884
:103710002320CA78012A20D00A7830F8221048F6EF
:10372000BF73194081F0200114E00A7830F822308C
:103730005B0407D530F822302B404CF280052B4338
:1037400020F822300A7830F822104BF68F73194097
:1037500081F44051214320F82210002030BD10B5E3
:103760004A780978002A48F2800330F8212005D0F1
:1037700048F6BF74224082F0100204E04BF68F74CA
:10378000224082F480521A4320F82120002010BDEC
:103790002DE9F0470D464B78097B04464FF00009B0
:1037A00048F68F7248F2800A4FF400474FF6FF78D0
:1037B000012B09D000296FD0E87802286DD00128AC
:1037C0006CD00120BDE8F087AE692869864200D937
:1037D000064691B1E97802291ED0286A801B28622A
:1037E000287834F820104906B4F85010214401EB31
:1037F000001073D5A0F80C6416E1B3B2EA88204635
:10380000696900F067FAB4F850002978204400EBA9
:103810000110A0F804640DE1296A814277D9297862
:1038200034F82100104048F28012104324F821009F
:10383000286A801B2862287834F8201049066978A5
:1038400071D511B101292AD030E0B4F850102144CB
:1038500001EB0010B0F80C14C1F30901A0F80C142E
:1038600000F20C403E2E07D97109F20600D1491E24
:10387000028847EA812107E04EB17108F20700D0C3
:10388000491C028808EA81210A4302800EE001886F
:1038900041F40041018009E0F1E020E195E1B4F854
:1038A0005020111901EB0010A0F80C646A89B3B222
:1038B0002046696900F00EFA686930446861296938
:1038C000286A884202D9801B286202E00646C5F8B1
:1038D0002090687818B101282BD032E02FE0B4F89E
:1038E00050002978204400EB0110B0F80414C1F313
:1038F0000901A0F8041400F204403E2E08D9710911
:10390000F20600D1491E028847EA812108E0A1E0C1
:1039100056B17108F20700D0491C028808EA8121DB
:103920000A4302800DE00EE0018841F4004101806D
:1039300007E0B4F850002978204400EB0110A0F80B
:1039400004642A8971E011B1012927D02DE0B4F86F
:103950005010214401EB0010B0F80414C1F3090128
:10396000A0F8041400F204403E2E07D97109F206B3
:1039700000D1491E028847EA812107E04EB1710853
:10398000F20700D0491C028808EA81210A4302801C
:103990000BE0018841F40041018006E0B4F85010CA
:1039A000214401EB0010A0F804642A89B3B2204638
:1039B000696900F08FF96869304468612969286A8B
:1039C000884202D9801B286202E00646C5F8209092
:1039D000687810B1012836D026E0B4F85000297874
:1039E000204400EB0110B0F80C14C1F30901A0F859
:1039F0000C1400F20C403E2E07D97109F20600D1DA
:103A0000491E028847EA812107E04EB17108F2079A
:103A100000D0491C028808EA81210A43028003E0A1
:103A2000018841F4004101806A89B3B22046696986
:103A300000F050F9297834F8210048F6BF721040A0
:103A400080F030000FE1B4F850100819297800EB2D
:103A50000110CFE62A7834F8220048F68F63184028
:103A600040EA0A0024F82200B4F850002A782044E2
:103A700000EB02108BB2A0F804342A89D6E7A969BA
:103A80002869814202D9091AA96102E00846C5F8ED
:103A90001890B4F850102A78214401EB0211B1F8C3
:103AA0000C24C2F30902A1F80C2401F20C413E28B7
:103AB0007DD94209C00600D1521E088847EA8222F9
:103AC0000AE0088840F4004007E04208C00700D040
:103AD000521C088808EA822210430880BBE033BBEE
:103AE000B4F850002978204400EB0110B0F8041419
:103AF000C1F30901A0F80414296900F204403E2929
:103B000007D94B09C90600D15B1E018847EA832308
:103B100007E041B14B08C90700D05B1C018808EAE7
:103B20008323194302E0018841F400410180687851
:103B300010B1012828D030E0B4F850002978204492
:103B400000EB0110B0F80C14C1F30901A0F80C143B
:103B5000296900F20C403E2907D94B09C90600D15A
:103B60005B1E018847EA832307E041B14B08C90780
:103B700000D05B1C018808EA8323194302E0018816
:103B800041F40041018008E0B4F850100819297888
:103B900000EB0110298AA0F80C14E869C0B3297859
:103BA00034F82100430401D5430605D400E046E083
:103BB00044F2400318424ED134F82100104048F23C
:103BC000C002104324F8210045E0A9692869814218
:103BD00002D9091AA96102E00846C5F8189013BB7A
:103BE000B4F850102A78214401EB0211B1F80424F2
:103BF000C2F30902A1F8042401F204413E2808D9C5
:103C00004209C30600D1521E0B8847EA822208E00F
:103C100021E078B14208C30700D0521C0B8808EAA3
:103C2000822213430B80697800293FF42EAF0129CB
:103C300009D010E00A8842F400420A80F3E7002825
:103C40007FF443AF3DE7B4F8502011192A7801EB17
:103C50000211A1F80C04297834F821004BF68F7278
:103C6000104080F4405040EA0A0024F8210000206F
:103C7000A8E50021A0F844104FF43F41A0F84010FF
:103C8000002070470148FDF771BC0000400800208B
:103C9000B0F844007047000010B500EB42005C082B
:103CA00000F5806009D000BF30F8042B01F8012B2B
:103CB000120A01F8012B641EF6D1DA0701D0008840
:103CC000087010BD0020704711B98021A0F84C1079
:103CD0000020704710B55B1C00EB42005B0800F54C
:103CE000806009D011F8012B11F8014B42EA04223F
:103CF00020F8042B5B1EF5D110BDFEE7F0B51E4881
:103D000085B0816941F040018161816901F0400124
:103D10000491816941F040018161816901F04001B4
:103D20000491816941F0040181618069002400F0FF
:103D3000040004901020012503268DE871000F4F28
:103D400069463846FCF748FF08208DE8710069464F
:103D50003846FCF741FF022003960095CDE901406B
:103D600069460748FCF738FF022206490648FCF777
:103D700001FD05B0F0BD0000001002400018014038
:103D80000008014086020020A402002010B5142182
:103D90000948FCF704FA0848002101701421417019
:103DA000FCF730FBFCF7FCFA142203490348FEF74A
:103DB00008FD0028F8D110BD8A0200206003002011
:103DC0000FB4054B10B503A9044A029800F028F877
:103DD00010BC5DF814FB0000753F0008A002002035
:103DE0000907090E002804DB00F1E02080F8001428
:103DF000704700F00F0000F1E02080F8141D7047BC
:103E000002E008C8121F08C1002AFAD170477047A3
:103E1000002001E001C1121F002AFBD17047000001
:103E20002DE9FF4F89B09B460446002506E0252872
:103E30000BD05A460B999047641C6D1C20780028C3
:103E4000F5D10DB02846BDE8F08F0027B846012215
:103E5000474900E0074314F8013F203B02FA03F012
:103E60000842F7D120782E2819D114F8010F47F015
:103E700004072A280ED06FF02F022078A0F130011D
:103E800009290CD808EB880102EB410100EB01087D
:103E9000641CF2E70A98641C50F8048B0A9020789E
:103EA0000028CED0642808D0692806D075281ED0F6
:103EB0005A460B9990476D1C58E00A994FF00A0931
:103EC00001C90A91002802DA40422D2102E0390599
:103ED00004D52B218DF82010012103E0F90704D02F
:103EE0002021F7E78A4608AE0DE00021FAE70A999B
:103EF0004FF00A0901C90A91F7E74946FCF75AF958
:103F0000303106F8011D0028F7D1ADEB060000F1B5
:103F10002009780701D44FF00108C84502DDA8EB5D
:103F2000090000E000208046002706E008A85A4665
:103F3000C05D0B9990476D1C7F1C5745F6DB04E074
:103F400030205A460B9990476D1CB8F10001A8F13A
:103F50000108F5DC05E016F8010B5A460B9990476D
:103F60006D1CB9F10001A9F10109F4DC641C65E7DD
:103F70000928010013B54FF6FF7301226946024874
:103F8000FDF7DCFF00981CBD18030020FCF734FF90
:103F9000FEF7B0FAFEF77EF8FEF76EF8FEF738F897
:103FA000FEF786F8FEF7A0F8FFF7A8FEFFF7EEFE93
:103FB0000A20FCF7FFFDF9E710B5401A029CE41A4D
:103FC0006043511A90FBF1F0184410BD0102020346
:103FD0000405060708090A0B0C0D0E0F101000004F
:103FE00000000000000001020304060708090000A9
:103FF0000000010203040000184000080000002037
:10400000A40200000402000834410008A4020020B9
:104010008C0C0000103E000813CD291408052A1B43
:104020000811041A39041A6D041AA5141AD90417B0
:10403000040309041201320216405E048E022602B5
:1040400001020301031B1A0322C0225014207D0425
:104050001B0879041A810419331182105324F413B4
:1040600061271408D5261B08E908411A0D081AA56E
:10407000101AB104C11A49181A3D041A55042A31FC
:104080002C120833FFFF1409028B13040125A0FA38
:1040900009041502FF5D011017112110010125818E
:1040A0001403030304130208030307058103201DFF
:1040B00005070502071B08092E3928131B21600B71
:1040C000010101834001042016856316051C0705C4
:1040D000832B1D020705040715040904021501FFBF
:1040E0005D022A09321C228607201A86192510092A
:1040F00004031FFFFD13040641193A038C13010149
:104100003BC0328C191C19321311011C01220232DE
:104110005984140103065966015D098B8C697A3153
:10412000130A0629082340015F14FFF7FFFFC002AE
:04413000B1021814AC
:0400000508000131BD
:00000001FF
